:04000000C8EF0FF046
:101F90000001E5EF0FF0016E9EA8D1EF0FF0D3EF37
:101FA0000FF0CCEF0FF001C0ADFF1200948C948EB7
:101FB000000EB06E000EAF6EAC8EAC9CAC8AAC98CE
:101FC000AC94B896900EAB6E1200D6EC0FF0550E96
:101FD000CBEC0FF0410ECBEC0FF0520ECBEC0FF030
:101FE000410ECBEC0FF0540ECBEC0FF00D0ECBEC02
:101FF0000FF01B0EE82EFED7E7EF0FF000EF00F01A
:020000040020DA
:08000000FFFFFFFFFFFFFFFF00
:020000040030CA
:0E000000FF301F3FFFBF81FF03C003E003403E
:00000001FF
